:100000000C941D020C9445020C9445020C9445027C
:100010000C9445020C9445020C9445020C94450244
:100020000C9445020C9445020C9445020C94450234
:100030000C9445020C9445020C9445020C94450224
:100040000C9413250C9445020C94E1240C94BB24CD
:100050000C9445020C9445020C9445020C94450204
:100060000C9445020C94450200407A10F35A00A00B
:10007000724E18090010A5D4E80000E87648170071
:1000800000E40B54020000CA9A3B000000E1F505B1
:10009000000080969800000040420F000000A086FB
:1000A00001000000102700000000E803000000002D
:1000B0006400000000000A000000000001000000D1
:1000C00000002C76D888DC674F0823DFC1DFAE59EB
:1000D000E1B1B796E5E3E453C63AE651997696E87E
:1000E000E6C28426EB898C9B62ED407C6FFCEFBC02
:1000F0009C9F40F2BAA56FA5F490055A2AF75C932D
:100100006B6CF9676DC11BFCE0E40D47FEF520E662
:10011000B500D0ED902E0300943577050080841E45
:10012000080000204E0A000000C80C333333330FA0
:10013000986E12831141EF8D2114893BE65516CF3D
:10014000FEE6DB18D1844B381BF77C1D901DA4BB49
:10015000E424203284725E228100C9F124ECA1E5FE
:100160003D2700000000240027002A0000000000B6
:10017000250028002B00002A2A2A2A2A2A2A2A2A8D
:100180002A2A2A2A2A2A2A2A2A2A2A2A2A2A2A2ACF
:100190002A2A2A2A2A2A00636F7079202620706171
:1001A000737465207468652075726C20696E2074A4
:1001B00068652062726F7773657220746F20746552
:1001C000737400746869732077696C6C207475723D
:1001D0006E204F4E2070696E2037002F3F733D31E7
:1001E00026703D37002F006578616D706C653A2090
:1001F000687474703A2F2F0070202870696E206E1A
:10020000756D62657229007320287374617475734B
:1002100029203D206F6E283129206F72206F66667D
:10022000283029007365742070696E2076616C75C2
:10023000657320287365742070696E20746F204F79
:100240004E206F72204F464629002A2A2A2A2A2A3F
:100250002A2A2A2A2A2A2A2A2A2A2A2A2A2A2A2AFE
:100260002A2A2A2A2A2A2A2A2A00636F7079202613
:10027000207061737465207468652075726C2069E4
:100280006E207468652062726F7773657220746F78
:100290002074657374002F3F6765745F76616C002E
:1002A0002F006578616D706C653A20687474703ADF
:1002B0002F2F006765742063757272656E742062FB
:1002C0006F6172642076616C756573002A2A2A2A30
:1002D0002A2A2A2A2A2A2A2A2A2A2A2A2A2A2A2A7E
:1002E0002A2A2A2A2A2A2A2A2A2A2A00626F61729C
:1002F000645F70696E733A006D6F6E69746F725FE0
:10030000747970653A2061726475696E6F2E6574D8
:100310006865726E6574006D6F6E69746F725F6987
:10032000705F616464726573733A20006D6F6E690B
:10033000746F725F70617373636F64653A200073EA
:10034000656E736F7220747970653A200000656D78
:1003500061696C3A20726676696C6C616361636195
:100360006E407961686F6F2E636F6D0061757468A0
:100370006F723A20726F6C6C792066616C636F20CB
:1003800076696C6C61636163616E00766572736936
:100390006F6E3A2076312E30207C206C6173742091
:1003A000757064617465643A2030312F33302F32B8
:1003B000303232006669726D77617265206E616DF0
:1003C000653A204B414D4F54452D5120506C75736B
:1003D0002B002A2A2A2A2A2A2A2A2A2A2A2A2A2AA6
:1003E0002A2A2A2A2A2A2A2A2A2A2A2A2A2A2A2A6D
:1003F0002A00000000002300260029000404040451
:1004000004040404020202020202030303030303BE
:10041000010204081020408001020408102001029B
:100420000408102000000008000201000003040777
:1004300000000000000000005D2511241FBECFEF6A
:10044000D8E0DEBFCDBF14E0A0E0B1E0E8EDF5E616
:1004500002C005900D92A831B107D9F725E0A8E1B7
:10046000B4E001C01D92A33FB207E1F712E0CDE175
:10047000D2E004C02197FE010E94C430CC31D107E4
:10048000C9F70E94EE250C94EA320C9400008CBD52
:100490009DBD089520E3FC0120833296862F82952E
:1004A0008F706F706A3030F4605D6293682F8111D5
:1004B000F5CF0895695CF9CFFC01818D928D089587
:1004C0000895FC01248135816217730720F480812F
:1004D0009181009729F410922E048EE294E0089501
:1004E000860F971F08950895AF92BF92CF92DF9223
:1004F000EF92FF920F931F93CF93DF936C017B01D9
:100500008B01040F151FEB015E01AE18BF08C01769
:10051000D10759F06991D601ED91FC910190F081DC
:10052000E02DC6010995892B79F7C501DF91CF919F
:100530001F910F91FF90EF90DF90CF90BF90AF9001
:100540000895FC01538D448D252F30E0842F90E0D9
:10055000821B930B541710F0CF96089501970895BE
:10056000FC01918D828D981761F0A28DAE0FBF2F87
:10057000B11D5D968C91928D9F5F9F73928F90E0DD
:1005800008958FEF9FEF0895FC01918D828D98174C
:1005900031F0828DE80FF11D858D90E008958FEF89
:1005A0009FEF0895FC01918D228D892F90E0805C52
:1005B0009F4F821B91098F73992708958DEF94E0C7
:1005C0000E94D20221E0892B09F420E0822F0895B5
:1005D00080E090E0892B29F00E94DE0281110C94CA
:1005E00000000895FC01A48DA80FB92FB11DA35AD6
:1005F000BF4F2C91848D90E001968F739927848F43
:10060000A689B7892C93A089B1898C918370806465
:100610008C93938D848D981306C00288F389E02D06
:1006200080818F7D80830895EF92FF920F931F93B7
:10063000CF93DF93EC0181E0888F9B8D8C8D981395
:100640001AC0E889F989808185FF15C09FB7F894A1
:10065000EE89FF896083E889F989808183708064ED
:1006600080839FBF81E090E0DF91CF911F910F9138
:10067000FF90EF900895F62E0B8D10E00F5F1F4F47
:100680000F731127E02E8C8D8E110CC00FB607FC56
:10069000FACFE889F989808185FFF5CFCE010E94E4
:1006A000F202F1CFEB8DEC0FFD2FF11DE35AFF4F5E
:1006B000F0829FB7F8940B8FEA89FB898081806272
:1006C000CFCF0F931F93CF93DF938C01D0E0C0E087
:1006D000F801EC0FFD1F6491662341F08DEF94E06B
:1006E0000E941403892B11F02196F2CFCE01DF91E5
:1006F000CF911F910F910895CF93DF93EC01888DD7
:100700008823B9F0AA89BB89E889F9898C9185FD8C
:1007100003C0808186FD0DC00FB607FCF7CF8C911A
:1007200085FFF2CF808185FFEDCFCE010E94F202DE
:10073000E9CFDF91CF910895833081F028F48130A3
:1007400099F08230A9F008958730A9F08830C9F077
:100750008430B1F4809180008F7D03C0809180004F
:100760008F7780938000089584B58F7784BD089536
:1007700084B58F7DFBCF8091B0008F778093B000E0
:1007800008958091B0008F7DF9CF1F93CF93DF93B1
:10079000282F30E0F901EC5DFB4F8491F901E05F17
:1007A000FB4FD491F901E450FC4FC491CC23A9F044
:1007B000162F81110E949C03EC2FF0E0EE0FFF1F1B
:1007C000E459FE4FA591B4918FB7F894EC911111B3
:1007D00008C0D095DE23DC938FBFDF91CF911F91AE
:1007E0000895DE2BF8CFCF93DF9390E0FC01E05F1C
:1007F000FB4F249184509C4FFC0184918823D1F0BD
:1008000090E0880F991FFC01EE59FE4FA591B4911D
:10081000FC01E459FE4FC591D491623071F49FB749
:10082000F8943C91822F809583238C93E8812E2B22
:1008300028839FBFDF91CF9108958FB7F894EC91F3
:100840002E2B2C938FBFF6CF3FB7F89480912A04BC
:1008500090912B04A0912C04B0912D0426B5A89B57
:1008600005C02F3F19F00196A11DB11D3FBFBA2F42
:10087000A92F982F8827BC01CD01620F711D811D02
:10088000911D42E0660F771F881F991F4A95D1F787
:1008900008952F923F924F925F926F927F928F9224
:1008A0009F92AF92BF92CF92DF92EF92FF920F93FF
:1008B0001F93CF93DF93C82F062F49015A010E943F
:1008C00024046B017C01D0E0CE018C5D9B4F2C0198
:1008D000FE01E05FFB4F3F01C450DC4F10E0F2012E
:1008E0008491F3013490FE012490222029F181119A
:1008F0000E949C03E22DF0E0EE0FFF1FEE50FC4F34
:10090000A591B4918C91382231E020E009F430E0D7
:10091000832F922F0817190791F40E9424046C1951
:100920007D098E099F0986169706A806B906B8F6AE
:1009300060E070E0CB0109C090E080E0EBCF0E9466
:1009400024046C197D098E099F09DF91CF911F91B5
:100950000F91FF90EF90DF90CF90BF90AF909F905E
:100960008F907F906F905F904F903F902F90089561
:100970008F929F92AF92BF92CF92DF92EF92FF92AF
:100980004B015C010E9424046B017C010E94240441
:100990006C197D098E099F09683E73408105910598
:1009A000A8F321E0821A9108A108B10888EEC80EC8
:1009B00083E0D81EE11CF11C81149104A104B10450
:1009C00029F7FF90EF90DF90CF90BF90AF909F906E
:1009D0008F9008952FB7F8946091260470912704A2
:1009E00080912804909129042FBF0895FC01208153
:1009F0002EBD9B012150310941F051810DB407FEFC
:100A0000FDCF4EB55EBD4193F5CF61507109860FA4
:100A1000971F0DB407FEFDCF2EB5FC01208308956E
:100A2000E0912104F0912204808190912004892B8F
:100A300080830895E0912104F091220490818091B7
:100A4000200480958923808308958EBD00000DB415
:100A500007FEFDCF8EB50895AF92BF92CF92DF9281
:100A6000EF92FF920F931F93CF93DF93CDB7DEB733
:100A700028970FB6F894DEBF0FBECDBF8C017B0167
:100A80006A018091FC048333E1F45801A40EB51E81
:100A9000A016B10609F46FC00E941A0580EF0E94EB
:100AA0002505812F0E942505802F0E9425050F5FB7
:100AB0001F4FF70181917F010E9425050E941005BB
:100AC000E7CF5B01A40EB51E8433C1F40E941A0562
:100AD00019830A838D2D80688B83CC8264E070E05B
:100AE000CE0101960E94F604AE14BF0409F441C081
:100AF000F70181917F010E942505F6CF0E941A051A
:100B00000F3F110509F028F419820A8384E08B83D2
:100B10000CC017FD17C019820A8333E0169507959C
:100B20003A95E1F7007E0C600B8386E0C816D1048D
:100B3000A0F5F701DE011496EA15FB0599F0819105
:100B40008D93FACFC80126E0969587952A95E1F70F
:100B5000807E19830A830115104C10F48461D7CF6D
:100B60008C61D5CFB6016D5F7F4FCE0101960E949B
:100B7000F6040E941005C60128960FB6F894DEBF51
:100B80000FBECDBFDF91CF911F910F91FF90EF90DE
:100B9000DF90CF90BF90AF90089563E070E0CE01FA
:100BA00001960E94F604F70181917F010E942505BC
:100BB000AE14BF04C1F7DDCFCF93DF931F92CDB743
:100BC000DEB7898341E050E0BE016F5F7F4F90E068
:100BD00080E00E942C050F90DF91CF91089590E066
:100BE0002091FC04233339F40C96982F990F990F18
:100BF000990F80E008954896F8CFDA01E091240437
:100C0000F0E0FE2FEE27E60FF71F90E0982F8827E1
:100C1000A901BD018E0F9F1F0C942C05CF93DF936C
:100C200000D0CDB7DEB779836A8322E030E0AE0131
:100C30004F5F5F4F60E170E00E94FD050F900F90E5
:100C4000DF91CF910895CF93DF9300D0CDB7DEB77A
:100C500079836A8322E030E0AE014F5F5F4F64E04A
:100C600070E00E94FD050F900F90DF91CF910895E5
:100C7000CF93DF931F92CDB7DEB72091240430E0ED
:100C8000322F2227260F371F90E0982F882749837D
:100C900041E050E0BE016F5F7F4F820F931F0E94C3
:100CA0002C050F90DF91CF910895CF93DF931F9282
:100CB000CDB7DEB76983DC01ED91FC910280F38151
:100CC000E02D41E050E0BE016F5F7F4F09950F902E
:100CD000DF91CF910895CF93DF931F92CDB7DEB709
:100CE0006983DC01ED91FC910280F381E02D41E00C
:100CF00050E0BE016F5F7F4F09950F90DF91CF915C
:100D00000895FC019485FB018485981303C081E05C
:100D1000943008F080E00895CF93DF931F92CDB711
:100D2000DEB76983DC01ED91FC910280F381E02D57
:100D300041E050E0BE016F5F7F4F09950F90DF915A
:100D4000CF910895FC01768765870895DC01ED91C8
:100D5000FC91068CF78DE02D099591E08927089587
:100D6000862F089581E08627089521E0FC0184857F
:100D7000843008F020E0822F08950895FF920F93A9
:100D80001F93CF93DF93EB01FC01178A168A2A8108
:100D9000211109C02B81211106C02C81211103C012
:100DA0002D81222301F141155105E9F08A01FC0151
:100DB000F08C80E591E00E944702AE014E5F5F4FEC
:100DC00024E030E06CE070E08F2D0E94FD05B8015A
:100DD0008F2D0E940E0681E090E0DF91CF911F9150
:100DE0000F91FF90089580E0F7CFFC0184859585F1
:100DF0000895FC018489958908952BE831E0FC0170
:100E000031832083FB014089518962897389FC0108
:100E100042835383648375830895DC01ED91FC91D3
:100E2000048CF58DE02D099490E080E00895EF9218
:100E3000FF920F931F93CF93DF937C01FC010481FA
:100E40001581602F90E080E00E94362FD0E0C0E056
:100E50001127C017D107ACF4F70184819581C81719
:100E6000D90768F480819181009749F08C0F9D1F0C
:100E7000FC0160812196CE010E94362FEACF60E00E
:100E8000F9CFDF91CF911F910F91FF90EF900895CF
:100E9000AF92BF92CF92DF92EF92FF920F931F9388
:100EA000CF93DF9300D000D0CDB7DEB78C016B01BC
:100EB0007A018091FC048333E9F45B016801C40E7C
:100EC000D51EC016D106A9F10E941A058FE00E9416
:100ED0002505812F0E942505802F0E9425050F5F83
:100EE0001F4F80E00E942505F50181935F010E945C
:100EF0001005E7CF843369F50E941A0519830A8328
:100F00008F2D8F778B83EC8264E070E0CE010196A9
:100F10000E94F604A70170E060E0C6010E94C232A0
:100F2000E114F10421F0B701C6010E94F6040E9409
:100F30001005C7010F900F900F900F90DF91CF9188
:100F40001F910F91FF90EF90DF90CF90BF90AF90E7
:100F500008950E941A050F3F110509F030F4198217
:100F60000A831B8263E070E0D1CF17FD0BC01982AA
:100F70000A8333E0169507953A95E1F7007E0860FD
:100F80000B83F0CFC80126E0969587952A95E1F767
:100F9000807E19830A830115104C18F480618B83BD
:100FA000E1CF8861FCCF1F93CF93DF931F92CDB722
:100FB000DEB7182F80E591E00E944702812F0E9442
:100FC000EF0527E0129FF0011124E852FB4F228128
:100FD0003381377041E050E0BE016F5F7F4F820F79
:100FE000931F0E94480789810F90DF91CF911F9135
:100FF0000895FC01808D843040F4218D328D232BA7
:1010000021F00E94D30790E008958FEF9FEF08959D
:10101000CF93DF93FC012485243028F08FEF9FEFDE
:10102000DF91CF910895EC010190F081E02D0084D3
:10103000F185E02D0995892B89F38C850E94D307D2
:1010400090E0EECFCF93DF931F92CDB7DEB741E0B4
:1010500050E0BE016F5F7F4F0E94480789810F906B
:10106000DF91CF91089590E080E00C942208CF9317
:10107000DF93C4E1D0E00E943308882361F061E08F
:1010800070E080E090E00E94B8042197A1F780E032
:10109000DF91CF91089581E0FBCFDF92EF92FF9235
:1010A0000F931F93CF93DF9300D0CDB7DEB760E3EC
:1010B00072E080E090E00E94B804DFB6F89406E0A9
:1010C00014E03AE1E32E34E0F32E80912304811101
:1010D00025C0F8018491F7019491E82FF0E0EE0F1C
:1010E000FF1FEE59FE4FA591B4918C91982321F4E6
:1010F00061E08AE00E94C50361E08AE00E94F30398
:101100008CB580618CBD8CB580648CBD61E08DE058
:101110000E94F30361E08BE00E94F30380912304BB
:101120008F5F80932304DFBEF8010491E02FF0E08D
:10113000EE0FFF1FE459FE4F859194919093220486
:1011400080932104F701E490E092200461E08AE0BA
:101150000E94F3030E94100580E591E00E9447027F
:1011600084E38093FC0480E80E94DC050E94370839
:10117000882309F441C088E00E94DC050E943308FE
:101180008830D1F580E10E94DC050E94330880316F
:1011900099F580E00E94DC050E943308182F811128
:1011A0002BC08FE190E00E942208833029F580E473
:1011B0008093240442E06EE170E0812F0E943806A3
:1011C00042E06FE170E0812F0E9438061F5F14300B
:1011D00089F740E06EE170E0812F0E94380640E020
:1011E0006FE170E0812F0E9438061F5F183089F789
:1011F00081E08093970464C087E38093FC0480E8D7
:101200000E94DC050E9437088823F9F088E00E94DC
:10121000DC050E9433088830C1F480E10E94DC05BF
:101220000E943308182F803181F480E00E94DC0591
:101230000E943308811109C089E390E00E942208CE
:10124000843019F410932404D3CF83E38093FC04F7
:1012500080E80E94DC050E943708882371F180E154
:101260000E94DC050E943308803139F582E10E943A
:10127000DC050E943308823101F580E00E94DC0524
:101280000E943308811119C084E08093240415E57D
:101290001A8341E050E0BE016E5F7F4F8BE190E02A
:1012A0000E942C05198341E050E0BE016F5F7F4F23
:1012B0008AE190E00E942C059BCF1092FC0480E014
:1012C0000F900F90DF91CF911F910F91FF90EF90B2
:1012D000DF9008952091240430E0322F2227620FFE
:1012E000731F90E0982F8827860F971F0C94220871
:1012F000CF93C82F462F61E070E00E94380661E06E
:1013000070E08C2F0E946A098111F9CFCF91089566
:10131000CF93C82F80E591E00E94470268E070E01B
:101320008C2FCF910C947809CF93C82F80E591E052
:101330000E94470260E170E08C2FCF910C947809F5
:10134000CF93DF93EC01888D843020F40E949409C0
:1013500084E0888FDF91CF91089563E070E00C9472
:101360006A09CF93C82F80E591E00E9447028C2F35
:10137000CF910C94AD09EF92FF920F931F93CF93EF
:101380007C0104EF14E0C0E0F801219131918F015C
:10139000F701848195812817390729F0CF5FC43080
:1013A00099F780E006C08C2F0E94B1098431B1F713
:1013B00081E0CF911F910F91FF90EF900895CF930F
:1013C000DF93EC018C858430D0F40E94B109843124
:1013D00089F0882379F0883169F021E08C3159F463
:1013E000E881F9810084F185E02DCE01099521E0A5
:1013F000892B09F420E0822FDF91CF91089580E0BE
:10140000FBCFCF92DF92EF92FF92CF93DF93EC016D
:101410008C85843068F40E9488090E94EA046B017C
:101420007C018C850E94B109811109C084E08C8700
:10143000DF91CF91FF90EF90DF90CF90089561E022
:1014400070E080E090E00E94B8040E94EA04AB01E2
:10145000BC014C195D096E097F098D859E85B0E040
:10146000A0E0481759076A077B07D8F28C850E94CD
:101470009409DCCFCF93FC01C08D80E591E00E9400
:10148000470260E270E08C2F0E94780962E070E011
:101490008C2F0E946A0984FD16C062E070E08C2FD8
:1014A0000E946A0983FF0AC048E162E070E08C2F65
:1014B0000E94380680E090E0CF91089580E591E0A9
:1014C0000E944702E3CF40E162E070E08C2F0E946F
:1014D000380681E0F0CFDA01E0912404F0E0FE2F3D
:1014E000EE27E60FF71F90E0982F8827A901BD018E
:1014F0008E0F9F1F0C9448078F929F92AF92BF92BE
:10150000CF92DF92EF92FF921F93CF93DF93CDB7ED
:10151000DEB72C970FB6F894DEBF0FBECDBF20917B
:10152000FC0414E0222329F16B017C0180E591E0A9
:101530000E9447025E0127E0A20EB11C450110E0A7
:10154000812F0E94AD09F40181934F01882349F155
:101550001F5F1430A9F710E0F50181915F018D3113
:10156000D9F08831C9F08A518230B0F01F5F143051
:1015700099F7812F2C960FB6F894DEBF0FBECDBF22
:10158000DF91CF911F91FF90EF90DF90CF90BF90B0
:10159000AF909F908F90089560E170E0812F0E943E
:1015A0007809A12EB12CF501EE0FFF1FEC50FB4F77
:1015B0001182108283EE93E00197F1F742E870E028
:1015C00060E0812F0E9438064FEF62E070E0812FCB
:1015D0000E943806B601C114D10491F4809106012D
:1015E0009091070101968115F0EC9F0708F45CC00B
:1015F00090930701809306016091060170910701A5
:10160000812F0E94230686E0E2E1F1E0DE011196DF
:1016100001900D928A95E1F7F70183818F778C8392
:1016200084818D8385818E83A7014E5F5F4F24E087
:1016300030E06CE070E0812F0E94FD05B601812F43
:101640000E940E0626E030E0AE014F5F5F4F66E07D
:1016500070E0812F0E94FD0561E070E0812F0E9403
:10166000780927E02A9DC0012B9D900D11249C0133
:1016700028523B4F7901F9011182108222E030E0BB
:10168000AE01455F5F4F68E270E0812F0E946B0AF8
:101690008B859C85982789279827F70193838283D8
:1016A00016821582148265CF80E090ECA1CFCF9294
:1016B000DF92EF92FF920F931F93CF93DF9300D0AF
:1016C00000D000D0CDB7DEB78C016B017A01FC01F0
:1016D000808D843010F40E9494098BE891E09A8305
:1016E0008983F60182819381A481B5818B839C8358
:1016F000AD83BE83B701CE0101960E947C0AF8013A
:10170000808F8430A0F4F586E486128E118E81E0FD
:1017100026960FB6F894DEBF0FBECDBFDF91CF91F6
:101720001F910F91FF90EF90DF90CF90089580E090
:10173000EFCFAF92BF92CF92DF92EF92FF920F93D3
:101740001F93CF93DF9300D000D000D0CDB7DEB78A
:10175000082F6B0180E591E00E9447029E012F5FF8
:101760003F4F7901590110E0812F0E94AD09F50129
:1017700081935F01882341F11F5F1430A9F710E0C6
:10178000F70181917F018D31D1F08831C1F08A510B
:101790008230A8F01F5F143099F7812F26960FB67C
:1017A000F894DEBF0FBECDBFDF91CF911F910F9197
:1017B000FF90EF90DF90CF90BF90AF90089560E1E1
:1017C00070E0812F0E947809E12EF12CF701EE0FD5
:1017D000FF1FEC50FB4F1182108283EE93E00197C4
:1017E000F1F7402F70E060E0812F0E9438064FEF44
:1017F00062E070E0812F0E943806B601CD2889F49E
:10180000809106019091070101968115F0EC9F07E8
:1018100098F1909307018093060160910601709101
:101820000701812F0E94230661E070E0812F0E9452
:10183000780927E02E9DC0012F9D900D11249C0159
:1018400028523B4F7901F9011182108222E030E0E9
:10185000AE014B5F5F4F68E270E0812F0E946B0A20
:101860008D819E81982789279827F701938382830A
:1018700016821582148291CF80E090ECCACFCF926D
:10188000DF92EF92FF921F93CF93DF93EC017B01E6
:101890006A018C85843048F40E94B109882319F0CC
:1018A0008C850E94880984E08C87F701828193816E
:1018B000A481B5810097A105B10551F490E080E0C5
:1018C000DF91CF911F91FF90EF90DF90CF9008951F
:1018D0008F3F9F4FAF4FBF4F89F38091FC04811121
:1018E00003C084E08C87EACF70E060E081E20E9470
:1018F000990B182F8C87843008F780E591E00E94BF
:101900004702A7014E5F5F4F24E030E06CE070E0DB
:10191000812F0E94FD05B601812F0E940E0664E012
:1019200070E0812F0E9478090E94EA046B017C011B
:101930008C850E94B109873109F18C31F9F0882337
:1019400009F4BCCF0E94EA04AB01BC014C195D094B
:101950006E097F098D859E85B0E0A0E0841795070C
:10196000A607B70738F061E070E080E090E00E94E1
:10197000B804DECF8C850E949409B3CF81E090E05B
:101980009FCF0F931F93CF93DF93EC018B01888D33
:10199000843010F40E9494098091FC04811107C0E6
:1019A00094E0988FDF91CF911F910F910895B80126
:1019B00082E00E94990B888F843030F41D870C8759
:1019C0001A8E198E81E0EECF80E0ECCF0F931F933B
:1019D000CF932091FC04222349F18C01FC01648106
:1019E000758181E20E94990BC82F8430F8F480E55C
:1019F00091E00E9447028C2F0E94AD09833131F0A3
:101A00008C2FCF911F910F910C94880962E070E0A8
:101A10008C2F0E947809F80184819581EC2FF0E0E9
:101A2000EE0FFF1FEC50FB4F91838083CF911F91EE
:101A30000F9108957F928F929F92AF92BF92CF9213
:101A4000DF92EF92FF920F931F93CF93DF9300D01B
:101A5000CDB7DEB7782E8B014A01590122E030E084
:101A6000AE014F5F5F4F64E270E00E946B0AE98055
:101A7000FA80FE24EF24FE24E00EF11E9701377059
:101A80004091FC04072D10E0433309F042C0085F89
:101A90001F4F102F0027110F110F110FC901800FB9
:101AA000911F4733C9F1A9014A0D5B1D41305840D0
:101AB00098F160E078E06B01C21AD30AA601B40184
:101AC0000E942C05A5014C195D09B4016C0D7D1D0A
:101AD000C8010E942C05EA0CFB1CF982EA8222E074
:101AE00030E0AE014F5F5F4F64E270E0872D0E94EF
:101AF000FD050F900F90DF91CF911F910F91FF90F7
:101B0000EF90DF90CF90BF90AF909F908F907F909D
:101B10000895005F1F4FBDCFA501B401DACFEF924A
:101B2000FF921F93CF93DF9300D0CDB7DEB7182F6E
:101B300022E030E0AE014F5F5F4F60E270E00E9454
:101B40006B0AE980FA80FE24EF24FE2422E030E0D4
:101B5000AE014F5F5F4F60E270E0812F0E946B0A21
:101B600089819A81982789279827E816F90689F4A8
:101B700087E0189FF0011124E852FB4FF582E482C0
:101B8000C7010F900F90DF91CF911F91FF90EF90C1
:101B900008957C01DBCF1F93CF93DF93182F80E54F
:101BA00091E00E944702812F0E948F0DEC01812F4E
:101BB0000E94AD09873121F08C3111F0D0E0C0E0F6
:101BC000CE01DF91CF911F910895CF93DF93EC0168
:101BD0008C85843060F40E94B109873111F08C311A
:101BE00031F48C850E94CB0D8115984088F3DF91EC
:101BF000CF910895FC018485843010F40C94CB0DB2
:101C000090E080E00895CF92DF92EF92FF921F93D1
:101C1000CF93DF93182F7B01EA014130584010F039
:101C2000C0E0D8E080E591E00E944702812F0E9449
:101C30008F0D6C01812F0E94AD09873111F08C311D
:101C400021F5CC16DD0670F380E591E00E94470295
:101C50009E01A70170E060E0812F0E941A0D60E2F2
:101C600070E0812F0E94780962E070E0812F0E946D
:101C70006A0984FD0DC0812F0E94AD098823B9F047
:101C800080E591E00E944702EFCFD0E0C0E0DCCFDA
:101C900040E162E070E0812F0E943806CE01DF91C2
:101CA000CF911F91FF90EF90DF90CF900895D0E0FB
:101CB000C0E0F4CF0F931F93CF93DF938C01EA0121
:101CC000FC018485843048F40E94030E892B39F48A
:101CD00081E090E0F80193838283D0E0C0E0CE0100
:101CE000DF91CF911F910F9108959F92AF92BF9274
:101CF000CF92DF92EF92FF920F931F93CF93DF93D8
:101D00008C015B01942EE52EFC01C688D788F08CEF
:101D100080E591E00E9447028F2D0E948F0DC92D12
:101D2000DE2D8C179D0708F4EC019E01A501B6017C
:101D30008F2D0E941A0DF801868997898C0F9D1F9F
:101D4000978B868BCE01DF91CF911F910F91FF90E2
:101D5000EF90DF90CF90BF90AF909F900895FF924B
:101D60000F931F93CF93DF9300D0CDB7DEB7F82E3C
:101D700022E030E0AE014F5F5F4F66E270E00E940C
:101D80006B0A09811A8110270127102722E030E011
:101D9000AE014F5F5F4F66E270E08F2D0E946B0ACD
:101DA00089819A819827892798270817190749F464
:101DB000C8010F900F90DF91CF911F910F91FF906D
:101DC00008958C01E3CF1F93CF93DF93182F87E003
:101DD000189FE0011124C852DB4F88819981009738
:101DE00061F480E591E00E944702812F0E94AF0ECE
:101DF0002E81821B910999838883DF91CF911F9156
:101E00000895AF92BF92CF92DF92EF92FF920F931D
:101E10001F93CF93DF93EC017B018091FC04811130
:101E200020C01B821A8288EE93E0A0E0B0E08C8391
:101E30009D83AE83BF838CE191E09983888384E0A6
:101E40008C8788EE93E09E878D87CE01DF91CF91BE
:101E50001F910F91FF90EF90DF90CF90BF90AF90C8
:101E6000089584EFC82E84E0D82E10E094E0B92EB7
:101E7000A12CD6012D913D916D01F70184819581B1
:101E80002817390791F4812F0E94B109082F873153
:101E900011F08C3139F5812F0E94E30E892B59F511
:101EA0000C3119F4812F0E9488091F5F143009F743
:101EB000A11008C0D701ED91FC910084F185E02DBF
:101EC000C70109951B821A8288EE93E0A0E0B0E07A
:101ED0008C839D83AE83BF838CE191E0998388835B
:101EE000BC86AFCF843149F08111DFCFF601329744
:101EF00011821082DACFB12ED8CFAA24A394D5CFE5
:101F00008F929F92AF92BF92CF92DF92EF92FF9209
:101F10001F93CF93DF93CDB7DEB72F970FB6F8940B
:101F2000DEBF0FBECDBF5C014B017A018091FC0486
:101F30008823A1F1B501CE0101960E94010F84EF23
:101F4000C82E84E0D82E10E0F601219131916F0166
:101F5000F501848195812817390751F4812F0E945A
:101F6000B109873129F4A701B401812F0E94030E22
:101F70001F5F143049F7C7012F960FB6F894DEBFE4
:101F80000FBECDBFDF91CF911F91FF90EF90DF90FB
:101F9000CF90BF90AF909F908F900895F12CE12C3F
:101FA000EACFFC018485843010F40C94E30E90E0B9
:101FB00080E008954F925F927F928F929F92AF92AE
:101FC000BF92CF92DF92EF92FF920F931F93CF9326
:101FD000DF9300D0CDB7DEB7782E6B014A01A82E73
:101FE000B12C27E0829FC0011124FC01E852FB4F75
:101FF0007F010081118180E591E00E944702081570
:10200000190554F4872D0E94AF0EF70126818C012B
:10201000021B1109118300830115110519F5872D84
:102020000E94AD09843159F0882349F001E010E0A5
:102030008C3111F410E000E0119501951109C801EF
:102040000F900F90DF91CF911F910F91FF90EF9024
:10205000DF90CF90BF90AF909F908F907F905F90D8
:102060004F900895801691060CF4840187E08A9DB4
:10207000F0018B9DF00D1124E852FB4FE280F380BC
:10208000C114D10451F12701F7E05F22872D0E948E
:10209000EF05840D951D2091FC04273309F453C0EE
:1020A0009801240D351D2130384008F44CC020E043
:1020B00038E0490184189508A401B6010E94480738
:1020C0002601480C591C6801C818D908872D0E94A0
:1020D000EF05A601B2010E944807E00EF11E87E05D
:1020E0008A9DF0018B9DF00D1124E852FB4FF38285
:1020F000E28220813181201B310B31832083868154
:10210000800F912F911D8A3F910510F4232BF1F43C
:1021100087E08A9DF0018B9DF00D1124E852FB4F62
:102120001682F982EA8222E030E0AE014F5F5F4F13
:1021300068E270E0872D0E94FD0560E470E0872D65
:102140000E9478097CCFA801B601C5CF868377CFDE
:10215000CF93DF93FC01218D328D2115310529F4B8
:102160008FEF9FEFDF91CF910895EC01808D4217A3
:10217000530708F0A9010E94DA0F1816190684F710
:10218000298D3A8D281B390B3A8F298FEBCF0F936E
:102190001F93CF93DF931F92CDB7DEB7FC01218D44
:1021A000328D232B41F48FEF9FEF0F90DF91CF9172
:1021B0001F910F9108958C0141E050E0BE016F5FC7
:1021C0007F4FFC01808D0E94DA0F181619065CF70C
:1021D000F801818D928D0197928F818F898190E096
:1021E000E4CFCF93DF931F92CDB7DEB741E050E04D
:1021F000BE016F5F7F4FFC0184850E94DA0F1816C5
:10220000190634F4898190E00F90DF91CF91089501
:102210008FEF9FEFF9CF0F931F93CF93DF93EC01D5
:102220000E94EA04688779878A879B87CE010E948B
:10223000F11097FF15C00E94EA04088519852A85C8
:102240003B85601B710B820B930B0C811D812E81D2
:102250003F81601771078207930740F38FEF9FEF6D
:10226000DF91CF911F910F910895FC0184858430F7
:1022700010F40C94DA0F90E080E008950F931F9310
:10228000CF93DF9300D0CDB7DEB7FC012485243097
:10229000E0F48C0180E591E00E94470222E030E00A
:1022A000AE014F5F5F4F60E170E0F80184850E94EE
:1022B0006B0A89819A819827892798270F900F9018
:1022C000DF91CF911F910F91089590E080E0F6CFBC
:1022D0000F931F93CF93DF9300D0CDB7DEB7FC01F0
:1022E00024852430E0F48C0180E591E00E944702CF
:1022F00022E030E0AE014F5F5F4F64E070E0F80134
:1023000084850E946B0A89819A819827892798275A
:102310000F900F90DF91CF911F910F91089590E052
:1023200080E0F6CFCF93DF93EC018BE891E09983C7
:1023300088831A821B821C821D8280E591E00E94A4
:102340004702BE016E5F7F4F44E050E08FE090E0B7
:102350000E944807CE01DF91CF910895DC018BE800
:1023600091E08D939D9384E0FB0101900D928A95FD
:10237000E1F70895EF92FF920F931F93CF93DF93AE
:1023800000D000D0CDB7DEB78C017B01FB01848586
:102390008430A8F08BE891E0F80191838083128269
:1023A000138214821582C8010F900F900F900F9026
:1023B000DF91CF911F910F91FF90EF90089580E5ED
:1023C00091E00E94470224E030E0AE014F5F5F4F92
:1023D0006CE070E0F70184850E946B0ABE016F5FBC
:1023E0007F4FC8010E94AE11DECF0F931F93CF9392
:1023F000DF93CDB7DEB728970FB6F894DEBF0FBED8
:10240000CDBF8C01D80159964D915C915A974115D9
:10241000510551F0ED91FC91048CF58DE02D70E0AB
:1024200060E0C8010995EECFF801808D0E94E30EAF
:10243000892BB1F148E050E0BE016F5F7F4FD801BA
:1024400058968C910E94DA0F18161906F4F4D801E8
:10245000509684E0FE01319601900D928A95E1F745
:102460008D8190E0982F88272E81820F911DF80191
:10247000958B848B8F81282F30E0322F22278885FF
:10248000820F932F911D928F818F28960FB6F8940B
:10249000DEBF0FBECDBFDF91CF911F910F91089589
:1024A00090E080E0F2CF4F925F926F927F928F9296
:1024B0009F92AF92BF92CF92DF92EF92FF920F93D3
:1024C0001F93CF93DF93CDB7DEB763970FB6F89422
:1024D000DEBF0FBECDBF7C016B013A01FB0120E0E6
:1024E00090E080E06AE03191332309F461C040ED6F
:1024F000430F4A3008F04DC0689FA001699F500DFE
:102500001124CA01C097830F911D37FD9A958F3F03
:10251000910549F340F3F70142815381648175814C
:102520008091C6059091C705A091C805B091C905D5
:10253000481759076A077B0709F40DC28701085F2E
:102540001F4F0E94EA046F7077277C5FC8010E94CA
:10255000C10C813009F004C28BE891E09A83898331
:10256000F70182819381A481B5818B839C83AD83A4
:10257000BE8345E350E0BE016F5F7F4FC8010E94FC
:10258000BE06892BA9F5D12CC12CC8010E94A00937
:1025900017C03E3209F0BFCF233009F4BCCFD301BE
:1025A000A20FB11D12968C932F5F90E080E09BCF1D
:1025B000233009F0B0CFF3018583CC24C394D12C10
:1025C000C60163960FB6F894DEBF0FBECDBFDF9194
:1025D000CF911F910F91FF90EF90DF90CF90BF9020
:1025E000AF909F908F907F906F905F904F900895E5
:1025F0000E94EA04F7017783668342E050E0B70166
:102600006A5F7F4FC8010E94750E81E090E09A8357
:10261000898342E050E0BE016F5F7F4FC8010E9496
:10262000750E80E091E09A83898342E050E0BE011C
:102630006F5F7F4FC8010E94750E1A82198242E0B7
:1026400050E0BE016F5F7F4FC8010E94750E42E0EF
:1026500050E0BE016F5F7F4FC8010E94750E42E0DF
:1026600050E0BE016F5F7F4FC8010E94750E56019A
:10267000F6018081882301F16501F60181912F0126
:10268000882311F08E32B1F446018A189B08181481
:10269000190474F48D8641E050E0BE01635F7F4F02
:1026A000C8010E94750EA401B501C8010E94750EF3
:1026B0005201DECF6201E1CF1D8641E050E0BE0154
:1026C000635F7F4FC8010E94750EC12CDD24D39437
:1026D000DA82C98242E050E0BE016F5F7F4FC801DD
:1026E0000E94750EDA82C98242E050E0BE016F5F3F
:1026F0007F4FC8010E94750EC8010E943A0A892BBB
:1027000009F441CFF3E0AF2EB12C230122E0420EB9
:10271000511CD4C0F7014281538164817581808D41
:10272000918DA28DB38D481759076A077B0709F071
:1027300008C1848D958DC59709F003C181A192A12F
:102740005DEFC52EDD24DA940C970CF4ADC04CE09F
:1027500050E0BE016F5F7F4FC8010E94A8108B81BF
:102760009C819827892798279A8B898BF701468126
:10277000578129813A814217530709F0E7C097FF33
:10278000E5C08F7092703BEFC32EDD24DA94892B65
:1027900009F08AC06F8078847624672476242AEF33
:1027A000C22EDD24DA946114710409F47DC0D12CA9
:1027B000C12C8D819E81982789279827C816D90614
:1027C000F8F441E050E0BE01635F7F4FC8010E9412
:1027D000A8104D85442331F050E070E060E0C8015E
:1027E0000E94A8108D858111ECCF44E050E070E08C
:1027F00060E0C8010E94A810FFEFCF1ADF0AD9CF0E
:10280000912C812C41E050E0BE016D5E7F4FC801EC
:102810000E94A8104B89842F807C09F06CC044234F
:1028200031F050E070E060E0C8010E94A8108B8990
:102830008111E8CF42E050E0BE01615F7F4FC801E7
:102840000E94A81042E050E0BE01635F7F4FC801C4
:102850000E94A81044E050E070E060E0C8010E94CF
:10286000A81042E050E0BE016F5E7F4FC8010E9499
:10287000A8108F85988949895A898115914009F056
:1028800043C0CD84DE84DC24CD24DC2481E0C81662
:10289000D104D1F54115544009F04AC044E050E05C
:1028A000B201C8010E94A81021E0A21AB10809F4DF
:1028B0006CCEFFEFCF16DF0609F067CE0E94EA0468
:1028C0003B014C01C8010E94F511181619060CF4C1
:1028D00021CF0E94EA0466197709880999096938A5
:1028E00073418105910548F562E370E080E090E076
:1028F0000E94B804E7CF41E050E070E060E0C8011A
:102900000E94A8101B8A93CF54274527542770E0B4
:1029100060E0C8010E94A810FFEF8F1A9F0A681498
:10292000790409F06FCF96EFC92EDD24DA94BCCF7D
:10293000E7EFCE2EDD24DA94B7CFCC24CA94DC2C7A
:10294000B3CF6EEFC62EDD24DA94AECF4CEFC42E9B
:10295000DD24DA94A9CF8EEFC82EDD24DA9430CEB0
:10296000D12CC12C2DCECF92DF92EF92FF920F93FC
:102970001F93CF93DF93CDB7DEB7AF970FB6F89421
:10298000DEBF0FBECDBF7C016A010BE811E01A83E8
:1029900009831C861B8688EE93E0A0E0B0E08D875B
:1029A0009E87AF87B88B8AE491E09A878987188FD2
:1029B0000F8B198E1A8E1B8E1C8E84E089A31BA789
:1029C0000AA71CA61DA61EA61FA68091BA05909157
:1029D000BB05A091BC05B091BD058EA39FA3A8A780
:1029E000B9A78B839C83AD83BE8318861F82AE01FB
:1029F000465D5F4FCE0101960E94531281309105D2
:102A0000B1F4D701ED91FC910488F589E02D1DA367
:102A10000CA38CA59DA5AEA5BFA58EA39FA3A8A71B
:102A2000B9A7A601BE016C5D7F4FC7010995AF969E
:102A30000FB6F894DEBF0FBECDBFDF91CF911F91CF
:102A40000F91FF90EF90DF90CF900895CF92DF929B
:102A5000EF92FF920F931F93CF93DF93CDB7DEB723
:102A6000AF970FB6F894DEBF0FBECDBF8C016B01E0
:102A70007A018BE891E09A8389831B821C821D82F4
:102A80001E821C861B8648EE53E060E070E04D8796
:102A90005E876F87788B2AE431E03A872987988FA1
:102AA0008F8B198E1A8E1B8E1C8E24E029A39BA758
:102AB0008AA71CA61DA61EA61FA6D8011C968C912F
:102AC000843060F40E94B109882321F0F8018485E4
:102AD0000E94880984E0D8011C968C938091BA05E5
:102AE0009091BB05A091BC05B091BD058EA39FA39D
:102AF000A8A7B9A78B839C83AD83BE8318861F824A
:102B0000AE01465D5F4FB601CE0101960E945312A1
:102B10000097C1F0D801ED91FC910684F785E02D76
:102B20008BE891E09DA38CA38CA59DA5AEA5BFA528
:102B30008EA39FA3A8A7B9A7A701BE016C5D7F4F75
:102B4000C8010995AF960FB6F894DEBF0FBECDBF92
:102B5000DF91CF911F910F91FF90EF90DF90CF9079
:102B60000895FB0101900020E9F73197AF01461B62
:102B7000570BDC01ED91FC910280F381E02D09946B
:102B8000CF93DF930E946103EC016DE971E08DEF5B
:102B900094E00E94B1158C0F9D1FDF91CF91089595
:102BA0008F929F92AF92BF92EF92FF920F931F93DB
:102BB000CF93DF93CDB7DEB7A1970FB6F894DEBF02
:102BC0000FBECDBF7C01FA01CB0119A2223008F45F
:102BD0002AE08E010F5D1F4F822E912CB12CA12C6B
:102BE000BF01A50194010E94AD2FF901CA016A300D
:102BF0000CF5605DD8016E938D01232B242B252BC2
:102C000079F790E080E0109721F0BD01C7010E94A4
:102C1000B115A1960FB6F894DEBF0FBECDBFDF9100
:102C2000CF911F910F91FF90EF90BF90AF909F9029
:102C30008F900895695CDECF0F931F93CF93DF933E
:102C4000EC010E94B1158C016DE971E0CE010E948A
:102C5000B115800F911FDF91CF911F910F910895B2
:102C60000F931F93CF93DF93EC01FB0144815581B8
:102C700060817181E881F9810280F381E02D0995FD
:102C80008C016DE971E0CE010E94B115800F911F9A
:102C9000DF91CF911F910F910895CF93DF93DC01C6
:102CA00014962D913C911597232B79F0FB01CD9132
:102CB000DC9160817181CE010E94D032009729F0B1
:102CC0008C1B9D0BDF91CF9108958FEF9FEFFACF73
:102CD0007F928F929F92AF92BF92CF92DF92EF92AC
:102CE000FF920F931F93CF93DF93CDB7DEB7A697D5
:102CF0000FB6F894DEBF0FBECDBF8C01762E942E9A
:102D0000852E20E2A22ECE0101967C01DC01EA2D67
:102D10001D92EA95E9F76801F3E4CF0ED11C8BE828
:102D200091E09AA389A38FEF8BA38CA38DA38EA38D
:102D300043E450E0BE016F5D7F4FC6010E94BE06B6
:102D4000019609F4BFC081E089838A8386E0B82EAA
:102D5000BB821C82D80114966D917D918D919C91BE
:102D600017970E94BD306D837E838F8398878986F5
:102D70009A8680E890E09C878B874CE150E0B70111
:102D8000C6010E94750EFE0137968AE1DF011D9291
:102D90008A95E9F74801B8E08B0E911CF401D70140
:102DA00001900D92BA94E1F740E150E0B701C601FD
:102DB0000E94750EF7011192AA94E9F796E0A92EE8
:102DC000B12C40E250E0B701C6010E94750EF1E05F
:102DD000AF1AB108B1F783E6898392E89A8393E545
:102DE0009B838C8385E38D8381E08E837F829DE34B
:102DF000988797E099878A8786E0F401DE011B9621
:102E000001900D928A95E1F78CE0898B8A8B60EABC
:102E100071E0CE0143960E94C932D8011B966C9195
:102E2000CE0149960E944A02F8016485CE014B9674
:102E30000E944A02D8011D966C91CE014D960E94C7
:102E40004A024EE150E0B701C6010E94750EB3E0A0
:102E50007B121EC082E3898384E08A83F801968511
:102E60009B8397859C8390899D8391899E8396E31C
:102E70009F838887828D8987838D8A87848D8B87BE
:102E8000858D8C874CE050E0B701C6010E94750E1D
:102E900087E3898386E08A8391E09B8393E09C8328
:102EA0008D838FE08E838AE38F838BE388878FEF18
:102EB000898749E050E0B701C6010E94750EC6013E
:102EC0000E943A0AA6960FB6F894DEBF0FBECDBF99
:102ED000DF91CF911F910F91FF90EF90DF90CF90F6
:102EE000BF90AF909F908F907F9008950F931F9306
:102EF000CF93DF938C01EB01FC01808191810097DE
:102F0000E1F06881798161157105A9F042815381F1
:102F10002C813D814217530770F00E94C9328C8189
:102F20009D81F801958384831D821C82DF91CF915E
:102F30001F910F9108950E94663188819981F8014F
:102F4000918380838A819B81938382838C819D81FD
:102F500095838483198218821B821A82E5CFCF93CE
:102F6000DF93EC0188819981009711F00E9466310E
:102F7000198218821D821C821B821A82DF91CF91D6
:102F80000895FC0180819181009711F00C946631C5
:102F900008950F931F93CF93DF93EC01888199815C
:102FA000009759F02A813B812617370730F081E0DE
:102FB000DF91CF911F910F9108958B016F5F7F4F2C
:102FC0000E94EF31009759F0998388831B830A830D
:102FD0002C813D81232B59F7FC011082E8CF80E042
:102FE000E7CFEF92FF920F931F93CF93DF9361157B
:102FF000710541F480E0DF91CF911F910F91FF9017
:10300000EF90089541155105B1F07B01EC010C8161
:103010001D81040F151FB8010E94C917882351F3A1
:10302000288139818C819D81B701820F931F0E9475
:10303000C9321D830C8381E0DECFCF93DF93EC0197
:10304000FB0101900020E9F73197AF01461B570BB8
:103050000E94F117811103C0CE010E94AF17CE016B
:10306000DF91CF910895EF92FF920F931F93CF932B
:10307000DF93CDB7DEB764970FB6F894DEBF0FBE0F
:10308000CDBF7C01CB01BA018E010F5F1F4F22E043
:1030900044E00E94052BFC0101900020E9F73197E4
:1030A000AF01481B590BBC01C7010E94F117649680
:1030B0000FB6F894DEBF0FBECDBFDF91CF911F9149
:1030C0000F91FF90EF900895EF92FF920F931F934F
:1030D000CF93DF93CDB7DEB728970FB6F894DEBF56
:1030E0000FBECDBF7C01CB014AE08E010F5F1F4FA9
:1030F000B8010E94C72BF80101900020E9F7319731
:10310000AF01401B510BB801C7010E94F11728966F
:103110000FB6F894DEBF0FBECDBFDF91CF911F91E8
:103120000F91FF90EF900895EF92FF920F931F93EE
:10313000CF93DF9300D000D0CDB7DEB77C01862FD0
:103140004AE08E010F5F1F4FB80190E00E94C72B2D
:10315000F80101900020E9F73197AF01401B510BB6
:10316000B801C7010E94F1170F900F900F900F90B8
:10317000DF91CF911F910F91FF90EF900895FB0188
:1031800001900020E9F73197AF01461B570B0C94D3
:10319000F117EF92FF920F931F93CF93DF93EC0100
:1031A0007B018A01BA010E94C91781110BC0CE01AF
:1031B0000E94AF17CE01DF91CF911F910F91FF9029
:1031C000EF9008951D830C83B701888199810E9437
:1031D000C932F0CFFB0101900020E9F73197AF0130
:1031E000461B570B0C94C918CF93DF93EC01FB01DE
:1031F0008617970749F0608171816115710541F06B
:10320000448155810E94C918CE01DF91CF91089564
:103210000E94AF17F9CFFC01118210821382128233
:10322000158214820C94F418FC011182108213820E
:10323000128215821482FB0101900020E9F7319778
:10324000AF01461B570B0C94C9186F927F928F9257
:103250009F92AF92BF92CF92DF92EF92FF920F9325
:103260001F93CF93DF93CDB7DEB75C016DB67EB60B
:1032700090E080E00E942E2F082F10E0C8010196F8
:103280002DB73EB7281B390B0FB6F8943EBF0FBEC3
:103290002DBF8DB79EB701966C014C01F12CE12C2E
:1032A000E016F10654F49FEFE91AF90AC7010E94EB
:1032B0002E2FF40181934F01F3CFF601E00FF11FA0
:1032C0001082B601C5010E941419C5010FB6F89409
:1032D0007EBE0FBE6DBEDF91CF911F910F91FF900B
:1032E000EF90DF90CF90BF90AF909F908F907F90A6
:1032F0006F9008958F929F92AF92BF92CF92DF927C
:10330000EF92FF920F931F93CF93DF937C01EB011A
:103310006C0182E0C80ED11C4701E5E08E0E911CC5
:1033200010E000E0F60141916F0150E070E060E0D4
:103330002AE0CE010E94D0155C01E881F98101905C
:10334000F081E02D6EE2CE0109958A0D9B1D080FDC
:10335000191FC814D90431F7F701458150E070E016
:1033600060E02AE0CE010E94D015800F911FDF910E
:10337000CF911F910F91FF90EF90DF90CF90BF9072
:10338000AF909F908F900895DF92EF92FF920F93EE
:103390001F93CF93DF93CDB7DEB72C970FB6F8947A
:1033A000DEBF0FBECDBF8C01E62ED42E6FE971E0DB
:1033B0000E941419DD2009F464C061E08E2D0E9482
:1033C000C50367EA71E0C8010E94EA186E2DC801C2
:1033D0000E94941860EB71E0C8010E94BF1863EB73
:1033E00071E0C8010E94BF1861E070E0C8010E944E
:1033F00064186EEB71E0C8010E94BF18F12CCE0179
:1034000007960E942519B701CE0107960E94610216
:10341000FC018081082E000C990BD8161906F1F0DA
:10342000B701CE010796DD2009F445C00E94610274
:1034300021E3FC012083CE0107960E941707CE01ED
:1034400001960E942519BE016F5F7F4FCE0107963E
:103450000E947617CE0101960E94C117CE010796F1
:103460000E94C117C8012C960FB6F894DEBF0FBE9C
:10347000CDBFDF91CF911F910F91FF90EF90DF9023
:10348000089560E08E2D0E94C50367EA71E0C801CF
:103490000E94EA186E2DC8010E94941860EB71E03A
:1034A000C8010E94BF1863EB71E0C8010E94BF18F9
:1034B00070E060E09BCF0E94610220E3BACFCF9220
:1034C000DF92EF92FF920F931F93CF93DF93CDB7CD
:1034D000DEB7E9970FB6F894DEBF0FBECDBF6FE938
:1034E00071E0CE0146960E9414196FE971E0CE0199
:1034F0004C960E9414196FE971E0CE0182960E94E9
:1035000014196FE971E0CE0188960E9414196FE9D1
:1035100071E0CE018E960E94141961EC71E0CE012B
:103520004C960E94EA1868E974E0CE014C960E941D
:10353000BF1863EE75E0CE0101960E94010F8D85E4
:10354000843010F00C941123CE0101960E94D10F0B
:10355000892B39F461E070E080E090E00E94B804CB
:10356000F3CF6FE971E0CE01C4960E941419CE0129
:1035700001960E940B1197FD0FC08D30910561F0EF
:10358000888B198A41E050E0BE01605F7F4FCE0119
:10359000C4960E94F117EBCFBE016C5C7F4F8DEF9C
:1035A00094E00E943016CE0101960E94E50D61EC78
:1035B00071E0CE0182960E94EA1868E974E0CE01BB
:1035C00082960E94BF1863EC71E0CE0182960E9441
:1035D000BF18BE016E5D7F4FCE01C4960E944D168E
:1035E000019609F495C0188A198A1A8A1B8A1C8ABE
:1035F00061E08091D0050E94F30360E08091D005E6
:103600000E94C50362E170E080E090E00E94B8048F
:1036100062E08091D0050E94F30328E230E040E0B0
:1036200050E061E08091D0050E944904672B682B2F
:10363000692B09F0D5C68DEF8093D2058091D20514
:10364000811166C08091DF059091E005A091E105B0
:10365000B091E20580931C0490931D04A0931E0476
:10366000B0931F04C090D305D090D405E090D50549
:10367000F090D605C0921804D0921904E0921A0472
:10368000F0921B04CE0140960E9425196DEC71E06A
:10369000CE0188960E94EA18B701A601CE0188964D
:1036A0000E94331860EB71E0CE0188960E94BF182B
:1036B00067ED71E0CE0188960E94BF1840911C040E
:1036C00050911D0460911E0470911F04CE018896D4
:1036D0000E94331860EB71E0CE0188960E94BF18FB
:1036E0006FED71E0CE0188960E94BF184C895D890C
:1036F00068897989CE0188960E94F1176EEB71E096
:10370000CE0188960E94BF18CE0140960E94C11734
:10371000BE01645E7F4FCE0140960E940B196CEE95
:1037200071E0CE0140960E941D18BC01CE01469664
:103730000E94F418CE0140960E94C117BE016A5E35
:103740007F4FCE01C4960E944D16019689F041E04C
:1037500064E0CE0140960E94C419BE01605F7F4FB5
:10376000CE0188960E947617CE0140960E94C1171E
:10377000BE01645E7F4FCE0140960E940B1966EF3A
:1037800071E0CE0140960E941D18BC01CE01469604
:103790000E94F418CE0140960E94C117BE016A5ED5
:1037A0007F4FCE01C4960E944D16019689F040E0ED
:1037B00064E0CE0140960E94C419BE01605F7F4F55
:1037C000CE0188960E947617CE0140960E94C117BE
:1037D000BE01645E7F4FCE0140960E940B1960E0EF
:1037E00072E0CE0140960E941D18BC01CE014696A3
:1037F0000E94F418CE0140960E94C117BE016A5E75
:103800007F4FCE01C4960E944D16019689F041E08B
:1038100065E0CE0140960E94C419BE01605F7F4FF3
:10382000CE0188960E947617CE0140960E94C1175D
:10383000BE01645E7F4FCE0140960E940B196AE084
:1038400072E0CE0140960E941D18BC01CE01469642
:103850000E94F418CE0140960E94C117BE016A5E14
:103860007F4FCE01C4960E944D16019689F040E02C
:1038700065E0CE0140960E94C419BE01605F7F4F93
:10388000CE0188960E947617CE0140960E94C117FD
:10389000BE01645E7F4FCE0140960E940B1964E129
:1038A00072E0CE0140960E941D18BC01CE014696E2
:1038B0000E94F418CE0140960E94C117BE016A5EB4
:1038C0007F4FCE01C4960E944D16019689F041E0CB
:1038D00066E0CE0140960E94C419BE01605F7F4F32
:1038E000CE0188960E947617CE0140960E94C1179D
:1038F000BE01645E7F4FCE0140960E940B196EE1BF
:1039000072E0CE0140960E941D18BC01CE01469681
:103910000E94F418CE0140960E94C117BE016A5E53
:103920007F4FCE01C4960E944D16019689F040E06B
:1039300066E0CE0140960E94C419BE01605F7F4FD1
:10394000CE0188960E947617CE0140960E94C1173C
:10395000BE01645E7F4FCE0140960E940B1968E263
:1039600072E0CE0140960E941D18BC01CE01469621
:103970000E94F418CE0140960E94C117BE016A5EF3
:103980007F4FCE01C4960E944D16019689F041E00A
:1039900067E0CE0140960E94C419BE01605F7F4F70
:1039A000CE0188960E947617CE0140960E94C117DC
:1039B000BE01645E7F4FCE0140960E940B1962E308
:1039C00072E0CE0140960E941D18BC01CE014696C1
:1039D0000E94F418CE0140960E94C117BE016A5E93
:1039E0007F4FCE01C4960E944D16019689F040E0AB
:1039F00067E0CE0140960E94C419BE01605F7F4F10
:103A0000CE0188960E947617CE0140960E94C1177B
:103A1000BE01645E7F4FCE0140960E940B196CE39D
:103A200072E0CE0140960E941D18BC01CE01469660
:103A30000E94F418CE0140960E94C117BE016A5E32
:103A40007F4FCE01C4960E944D16019689F041E049
:103A500068E0CE0140960E94C419BE01605F7F4FAE
:103A6000CE0188960E947617CE0140960E94C1171B
:103A7000BE01645E7F4FCE0140960E940B1966E442
:103A800072E0CE0140960E941D18BC01CE01469600
:103A90000E94F418CE0140960E94C117BE016A5ED2
:103AA0007F4FCE01C4960E944D16019689F040E0EA
:103AB00068E0CE0140960E94C419BE01605F7F4F4E
:103AC000CE0188960E947617CE0140960E94C117BB
:103AD000BE01645E7F4FCE0140960E940B1960E5E7
:103AE00072E0CE0140960E941D18BC01CE014696A0
:103AF0000E94F418CE0140960E94C117BE016A5E72
:103B00007F4FCE01C4960E944D16019689F041E088
:103B100069E0CE0140960E94C419BE01605F7F4FEC
:103B2000CE0188960E947617CE0140960E94C1175A
:103B3000BE01645E7F4FCE0140960E940B196AE57C
:103B400072E0CE0140960E941D18BC01CE0146963F
:103B50000E94F418CE0140960E94C117BE016A5E11
:103B60007F4FCE01C4960E944D16019689F040E029
:103B700069E0CE0140960E94C419BE01605F7F4F8C
:103B8000CE0188960E947617CE0140960E94C117FA
:103B9000BE01645E7F4FCE0140960E940B1964E621
:103BA00072E0CE0140960E941D18BC01CE014696DF
:103BB0000E94F418CE0140960E94C117BE016A5EB1
:103BC0007F4FCE01C4960E944D16019689F041E0C8
:103BD0006AE0CE0140960E94C419BE01605F7F4F2B
:103BE000CE0188960E947617CE0140960E94C1179A
:103BF000BE01645E7F4FCE0140960E940B196FE6B6
:103C000072E0CE0140960E941D18BC01CE0146967E
:103C10000E94F418CE0140960E94C117BE016A5E50
:103C20007F4FCE01C4960E944D16019689F040E068
:103C30006AE0CE0140960E94C419BE01605F7F4FCA
:103C4000CE0188960E947617CE0140960E94C11739
:103C5000BE01645E7F4FCE0140960E940B196AE759
:103C600072E0CE0140960E941D18BC01CE0146961E
:103C70000E94F418CE0140960E94C117BE016A5EF0
:103C80007F4FCE01C4960E944D16019689F041E007
:103C90006BE0CE0140960E94C419BE01605F7F4F69
:103CA000CE0188960E947617CE0140960E94C117D9
:103CB000BE01645E7F4FCE0140960E940B1965E8FD
:103CC00072E0CE0140960E941D18BC01CE014696BE
:103CD0000E94F418CE0140960E94C117BE016A5E90
:103CE0007F4FCE01C4960E944D16019689F040E0A8
:103CF0006BE0CE0140960E94C419BE01605F7F4F09
:103D0000CE0188960E947617CE0140960E94C11778
:103D1000BE01645E7F4FCE0140960E940B1960E9A0
:103D200072E0CE0140960E941D18BC01CE0146965D
:103D30000E94F418CE0140960E94C117BE016A5E2F
:103D40007F4FCE01C4960E944D16019689F041E046
:103D50006CE0CE0140960E94C419BE01605F7F4FA7
:103D6000CE0188960E947617CE0140960E94C11718
:103D7000BE01645E7F4FCE0140960E940B196BE935
:103D800072E0CE0140960E941D18BC01CE014696FD
:103D90000E94F418CE0140960E94C117BE016A5ECF
:103DA0007F4FCE01C4960E944D16019689F040E0E7
:103DB0006CE0CE0140960E94C419BE01605F7F4F47
:103DC000CE0188960E947617CE0140960E94C117B8
:103DD000BE01645E7F4FCE0140960E940B1966EAD9
:103DE00072E0CE0140960E941D18BC01CE0146969D
:103DF0000E94F418CE0140960E94C117BE016A5E6F
:103E00007F4FCE01C4960E944D16019689F041E085
:103E10006DE0CE0140960E94C419BE01605F7F4FE5
:103E2000CE0188960E947617CE0140960E94C11757
:103E3000BE01645E7F4FCE0140960E940B1961EB7C
:103E400072E0CE0140960E941D18BC01CE0146963C
:103E50000E94F418CE0140960E94C117BE016A5E0E
:103E60007F4FCE01C4960E944D16019689F040E026
:103E70006DE0CE0140960E94C419BE01605F7F4F85
:103E8000CE0188960E947617CE0140960E94C117F7
:103E9000BE01645E7F4FCE0140960E940B196CEB11
:103EA00072E0CE0140960E941D18BC01CE014696DC
:103EB0000E94F418CE0140960E94C117BE016A5EAE
:103EC0007F4FCE01C4960E944D16019689F041E0C5
:103ED0006EE0CE0140960E94C419BE01605F7F4F24
:103EE000CE0188960E947617CE0140960E94C11797
:103EF000BE01645E7F4FCE0140960E940B1967ECB5
:103F000072E0CE0140960E941D18BC01CE0146967B
:103F10000E94F418CE0140960E94C117BE016A5E4D
:103F20007F4FCE01C4960E944D16019689F040E065
:103F30006EE0CE0140960E94C419BE01605F7F4FC3
:103F4000CE0188960E947617CE0140960E94C11736
:103F5000BE01645E7F4FCE0140960E940B1962ED58
:103F600072E0CE0140960E941D18BC01CE0146961B
:103F70000E94F418CE0140960E94C117BE016A5EED
:103F80007F4FCE01C4960E944D16019689F041E004
:103F90006FE0CE0140960E94C419BE01605F7F4F62
:103FA000CE0188960E947617CE0140960E94C117D6
:103FB000BE01645E7F4FCE0140960E940B196DEDED
:103FC00072E0CE0140960E941D18BC01CE014696BB
:103FD0000E94F418CE0140960E94C117BE016A5E8D
:103FE0007F4FCE01C4960E944D16019689F040E0A5
:103FF0006FE0CE0140960E94C419BE01605F7F4F02
:10400000CE0188960E947617CE0140960E94C11775
:10401000BE01645E7F4FCE0140960E940B1968EE90
:1040200072E0CE0140960E941D18BC01CE0146965A
:104030000E94F418CE0140960E94C117BE016A5E2C
:104040007F4FCE01C4960E944D16019689F041E043
:1040500060E1CE0140960E94C419BE01605F7F4FAF
:10406000CE0188960E947617CE0140960E94C11715
:10407000BE01645E7F4FCE0140960E940B1963EF34
:1040800072E0CE0140960E941D18BC01CE014696FA
:104090000E94F418CE0140960E94C117BE016A5ECC
:1040A0007F4FCE01C4960E944D16019689F040E0E4
:1040B00060E1CE0140960E94C419BE01605F7F4F4F
:1040C000CE0188960E947617CE0140960E94C117B5
:1040D000BE01645E7F4FCE0140960E940B196EEFC9
:1040E00072E0CE0140960E941D18BC01CE0146969A
:1040F0000E94F418CE0140960E94C117BE016A5E6C
:104100007F4FCE01C4960E944D16019689F041E082
:1041100061E1CE0140960E94C419BE01605F7F4FED
:10412000CE0188960E947617CE0140960E94C11754
:10413000BE01645E7F4FCE0140960E940B1969E07C
:1041400073E0CE0140960E941D18BC01CE01469638
:104150000E94F418CE0140960E94C117BE016A5E0B
:104160007F4FCE01C4960E944D16019689F040E023
:1041700061E1CE0140960E94C419BE01605F7F4F8D
:10418000CE0188960E947617CE0140960E94C117F4
:10419000BE01645E7F4FCE0140960E940B1964E120
:1041A00073E0CE0140960E941D18BC01CE014696D8
:1041B0000E94F418CE0140960E94C117BE016A5EAB
:1041C0007F4FCE01C4960E944D16019689F041E0C2
:1041D00062E1CE0140960E94C419BE01605F7F4F2C
:1041E000CE0188960E947617CE0140960E94C11794
:1041F000BE01645E7F4FCE0140960E940B196FE1B5
:1042000073E0CE0140960E941D18BC01CE01469677
:104210000E94F418CE0140960E94C117BE016A5E4A
:104220007F4FCE01C4960E944D16019689F040E062
:1042300062E1CE0140960E94C419BE01605F7F4FCB
:10424000CE0188960E947617CE0140960E94C11733
:10425000BE01645E7F4FCE0140960E940B196AE258
:1042600073E0CE0140960E941D18BC01CE01469617
:104270000E94F418CE0140960E94C117BE016A5EEA
:104280007F4FCE01C4960E944D16019689F041E001
:1042900063E1CE0140960E94C419BE01605F7F4F6A
:1042A000CE0188960E947617CE0140960E94C117D3
:1042B000BE01645E7F4FCE0140960E940B1965E3FC
:1042C00073E0CE0140960E941D18BC01CE014696B7
:1042D0000E94F418CE0140960E94C117BE016A5E8A
:1042E0007F4FCE01C4960E944D16019689F040E0A2
:1042F00063E1CE0140960E94C419BE01605F7F4F0A
:10430000CE0188960E947617CE0140960E94C11772
:1043100060E473E0CE0101960E941C1660E573E034
:10432000CE0101960E941C166FE971E0CE01019644
:104330000E941C1668E673E0CE0101960E941C16CE
:1043400068E773E0CE0101960E941C166FE773E0E8
:10435000CE0101960E941C16BE01685D7F4FCE0102
:1043600001960E94301666E873E0CE0101960E9425
:104370001C166EE873E0CE0101960E941C1661E0E7
:1043800070E080E090E00E94B804CE0101960E94A7
:10439000010ACE01C4960E94C117CE018E960E94DA
:1043A000C117CE0188960E94C117CE0182960E9445
:1043B000C117CE014C960E94C117CE0146960E94AD
:1043C000C117E9960FB6F894DEBF0FBECDBFDF91DF
:1043D000CF911F910F91FF90EF90DF90CF900895B4
:1043E00020E530E040E050E060E08091D0050E94A0
:1043F0004904672B682B692B09F41DC920E530E0BF
:1044000040E050E061E08091D0050E944904672BB4
:10441000682B692B09F40FC910E000E022E330E0BB
:1044200040E050E060E08091D0050E94490424E61D
:1044300030E040E050E061E08091D0050E94490406
:10444000662331F1F80173E0F595E7957A95E1F788
:1044500080E190E08C0F9D1FE80FF91F8081880F8D
:1044600091E06E3208F490E0890F80830F5F1F4F58
:104470000832110599F6688949890A891B89862FAE
:10448000840F800F810F9C89891721F08FEFD4C88A
:104490008EEFD2C88091D105853109F486C086316E
:1044A00009F4B9C08B3009F06AC070E090E080E098
:1044B0000E94332E6093DF057093E0058093E10541
:1044C0009093E205602F70E090E080E00E94352E2E
:1044D0006B017C0117FF56C01F77612F70E090E0E1
:1044E00080E00E94352E2DEC3CEC4CEC5DE30E940C
:1044F000702E9B01AC0160E070E080E89FE30E94B9
:10450000DE2FA70196010E94DF2F6B017C01F7FAD5
:10451000F094F7F8F094C092D305D092D405E092CD
:10452000D505F092D60520E030E040E151E4C70126
:10453000B6010E94702E20E030E040EA50E40E9474
:104540004B3020E030E040E052E40E94DF2F6093E7
:10455000D7057093D8058093D9059093DA0523E3A6
:1045600033E948E853E4C701B6010E94DF2F6093A6
:10457000DB057093DC058093DD059093DE051092DA
:10458000D2055CC8612F70E090E080E00E94352E7B
:104590002DEC3CEC4CEC5DE30E94702EA7019601E3
:1045A0000E94DF2F6B017C01B6CF262F30E0322F27
:1045B0002227B901640F711D072E000C880B990B7F
:1045C0000E94352E2DEC3CEC4CEC5DE30E94702EED
:1045D0006093DF057093E0058093E1059093E20519
:1045E000602F70E0762F662766277F77610F711D39
:1045F000072E000C880B990B0E94352E2DEC3CECFD
:104600004CEC5DEB07FD04C02DEC3CEC4CEC5DE3A9
:104610000E94702EC7CF862F90E0982F8827BC016C
:10462000C9CFCE018E960E94C117CE0188960E94F6
:10463000C117CE018296BBCE3F924F925F926F928E
:104640007F928F929F92AF92BF92CF92DF92EF9222
:10465000FF920F931F93CF93DF93CDB7DEB7EA9707
:104660000FB6F894DEBF0FBECDBF7C012A013B011F
:1046700069010E94EA044B015C0187010D5B1F4F39
:10468000C8010E94F511181619069CF00E94EA0450
:10469000681979098A099B0946165706680679063A
:1046A00008F466C162E370E080E090E00E94B80424
:1046B000E7CF42E250E0BE016F5F7F4FC8010E942A
:1046C000A81089818230D1F0312C832DEA960FB663
:1046D000F894DEBF0FBECDBFDF91CF911F910F9138
:1046E000FF90EF90DF90CF90BF90AF909F908F9012
:1046F0007F906F905F904F903F900895F80184896C
:1047000095898334910501F76D817E818F8198852C
:104710000E94BD304B015C01F60180829182A28231
:10472000B38246E050E0B701685F7F4FCE014D96FF
:104730000E94AC32892B41F6F70180819181A281E0
:10474000B38188169906AA06BB0608F4BDCF8481FA
:104750009581A681B78188159905AA05BB0508F43E
:10476000B3CF89899A89AB89BC8986879787A08BC3
:10477000B18B4EEC50E070E060E0C8010E94A810E0
:10478000312CC701829698AB8FA7F701B696FAAB8A
:10479000E9AB08969CAB8BAB67019AE1C90ED11CC3
:1047A000BD96FEABEDABC701429698AF8FABFD97C0
:1047B000FAAFE9AF4701FEE18F0E911CF801818D40
:1047C000928D181619060CF080CFC8010E94C710F0
:1047D0008333910509F4B2C014F58130910509F4D1
:1047E00064C044F4892B51F3C8010E94C710AC0186
:1047F000552775C08330910509F462C00697A1F76B
:10480000C8010E94C710B82E44E050E0B401C801AE
:104810000E94A810EB2DE450FF0BAF0160C08A335B
:10482000910509F45FC084F585339105B1F1C69710
:10483000D9F6C8010E94C7105C01B601CE01899665
:104840000E94AE118BA59CA5ADA5BEA5892B8A2B78
:104850008B2BB1F0EDA9FEA940805180628073805E
:10486000B601CE0183960E94AE118DA19EA1AFA18B
:10487000B8A5A501481659066A067B0609F0B8CF07
:1048800044E050E0B60118C08B33910509F440C0F4
:104890008F3F910509F492CFA7CFC8010E94C7109E
:1048A000C8010E94C710382E89CFC8010E94C710C6
:1048B00044E050E06FA978ADC8010E94A8107ECFF7
:1048C000C8010E94C710B82E44E050E069AD7AAD2F
:1048D000C8010E94A8108B2D8450990BAC0170E088
:1048E00060E0EACFC8010E94C71044E050E069A927
:1048F0007AA9C8010E94A810F70166A177A180A536
:1049000091A50E94BD3066A377A380A791A756CF3B
:10491000C8010E94C71044E050E06BA97CA9C801FF
:104920000E94A810F70162A573A584A595A50E9411
:10493000BD3062A773A784A795A740CFC8010E9486
:10494000C71044E050E06FA578A9C8010E94A810E4
:10495000F70162A173A184A195A10E94BD3062A359
:1049600073A384A395A366A777A780AB91AB26CF4B
:1049700033243A94AACE1F920F920FB60F921124AD
:104980002F933F934F935F936F937F938F939F9357
:10499000AF93BF93EF93FF938DEF94E00E94F202E9
:1049A000FF91EF91BF91AF919F918F917F916F9107
:1049B0005F914F913F912F910F900FBE0F901F90DD
:1049C00018951F920F920FB60F9211242F938F9369
:1049D0009F93EF93FF93E0910D05F0910E05808179
:1049E000E0911305F091140582FD1BC09081809128
:1049F00016058F5F8F7320911705821741F0E091A4
:104A00001605F0E0E350FB4F958F80931605FF915C
:104A1000EF919F918F912F910F900FBE0F901F904C
:104A200018958081F4CF1F920F920FB60F92112428
:104A30002F933F938F939F93AF93BF9380912604BF
:104A400090912704A0912804B09129043091250465
:104A500023E0230F2D3758F50196A11DB11D20939A
:104A600025048093260490932704A0932804B093F0
:104A7000290480912A0490912B04A0912C04B091D8
:104A80002D040196A11DB11D80932A0490932B043F
:104A9000A0932C04B0932D04BF91AF919F918F915F
:104AA0003F912F910F900FBE0F901F90189526E801
:104AB000230F0296A11DB11DD2CFEDEFF4E01382BA
:104AC000128288EE93E0A0E0B0E084839583A68311
:104AD000B78389E791E09183808385EC90E09587A7
:104AE000848784EC90E09787868780EC90E0918BB8
:104AF000808B81EC90E0938B828B82EC90E0958BA5
:104B0000848B86EC90E0978B868B118E128E138EA1
:104B1000148EEAE9F5E08BE891E0918380831282BC
:104B2000138214821582E0EAF5E091838083128279
:104B3000138214821582E6EAF5E091838083128263
:104B4000138214821582ECEAF5E09183808312824D
:104B5000138214821582E2EBF5E091838083128246
:104B6000138214821582EEEBF5E09183808312822A
:104B7000138214821582E8EBF5E091838083128220
:104B8000138214821582E4ECF5E091838083128213
:104B9000138214821582EAECF5E0918380831282FD
:104BA000138214821582E9EEF5E0918380831282EC
:104BB000138214821582E3EEF5E01382128281E9FA
:104BC00091E09183808380E590E095838483E0ED9C
:104BD000F5E082E0808386E181830895CF93DF93BF
:104BE000CDB7DEB762970FB6F894DEBF0FBECDBF6C
:104BF000789484B5826084BD84B5816084BD85B5B8
:104C0000826085BD85B5816085BD80916E008160C3
:104C100080936E0010928100809181008260809369
:104C2000810080918100816080938100809180006B
:104C30008160809380008091B10084608093B10096
:104C40008091B00081608093B00080917A00846090
:104C500080937A0080917A00826080937A008091BC
:104C60007A00816080937A0080917A0080688093D6
:104C70007A001092C100E0910D05F0910E0582E0DE
:104C80008083E0910905F0910A051082E0910B05FF
:104C9000F0910C058FEC808310921505E0911105C1
:104CA000F091120586E08083E0910F05F0911005E8
:104CB000808180618083E0910F05F09110058081F3
:104CC00088608083E0910F05F091100580818068F5
:104CD0008083E0910F05F091100580818F7D8083A6
:104CE00061E084E00E94F30361E085E00E94F30349
:104CF00061E086E00E94F30361E087E00E94F30335
:104D000061E088E00E94F30361E089E00E94F30320
:104D100061E08AE00E94F30361E08BE00E94F3030C
:104D200061E08CE00E94F30361E08DE00E94F303F8
:104D300061E08EE00E94F30361E08FE00E94F303E4
:104D400061E080E10E94F30361E081E10E94F303EE
:104D500061E082E10E94F30361E083E10E94F303DA
:104D600080918F0481112AC01092770410927604EA
:104D700088EE93E0A0E0B0E080937804909379040B
:104D8000A0937A04B0937B048AE491E09093750435
:104D9000809374048BE891E0909383048093820461
:104DA0001092840410928504109286041092870455
:104DB00084E080938C0481E080938F0481E394E00D
:104DC0009093300480932F0480919704882309F4F2
:104DD0005BC180E591E00E94470246E050E060E060
:104DE00071E089E090E00E942C058BE891E09A83C5
:104DF00089831B821C821D821E8244E050E0BE011A
:104E00006D5F7F4F8FE090E00E942C05109253045D
:104E100010925404109255041092560410925704A4
:104E2000109258041092590410925A0410925B0484
:104E300010925C0410925D0410925E0480E69AEE7B
:104E4000A0E0B0E08093670490936804A0936904A5
:104E5000B0936A0480EA9FE0A0E0B0E080936B0426
:104E600090936C04A0936D04B0936E04EFE3F4E0B0
:104E700084E1DF011D928A95E9F786E0E0E0F1E048
:104E8000A9E3B4E001900D928A95E1F710927304C2
:104E90000E946F2B2FEC37E040E050E00E94442F3F
:104EA000DC01CB010196A11DB11D809335049093C7
:104EB0003604A0933704B093380480933104909360
:104EC0003204A0933304B093340484E794E00E9446
:104ED000A00964E470E084E794E00E94C10C882398
:104EE00009F4D6C00E94EA046B017C0158EE452EFD
:104EF00053E0552E612C712C63E0962E02E0B12C0C
:104F0000A12C80917304833009F440C08111D8C072
:104F10008091350490913604A0913704B091380403
:104F20000196A11DB11D8093350490933604A09382
:104F30003704B09338040E94EA046C197D098E0985
:104F40009F09A30192010E94AD2FA90161E081E3B5
:104F500094E00E94681681E08093730491E0A916A2
:104F6000B10479F20E94EA046C197D098E099F0947
:104F700020916704309168044091690450916A045B
:104F8000261737074807590708F0B9CF84E794E098
:104F90000E94A0098091350490913604A0913704B5
:104FA000B09138040196A11DB11D809335049093F2
:104FB0003604A0933704B09338040E94EA04609347
:104FC0006F04709370048093710490937204AA9498
:104FD000AB2809F05DC080E591E00E944702009196
:104FE0002F0410913004B801625F7F4FCE0101960B
:104FF0000E94AE1144E050E0BE016D5F7F4F8FE034
:1050000090E00E942C05B8016A5E7F4FCE010196A8
:105010000E94AE1144E050E0BE016D5F7F4F81E021
:1050200090E00E942C05B8016E5E7F4FCE01019684
:105030000E94AE1144E050E0BE016D5F7F4F85E0FD
:1050400090E00E942C05B801625E7F4FCE01019670
:105050000E94AE118B819C81AD81BE818093BA0587
:105060009093BB05A093BC05B093BD050E9424049A
:105070007F738091060190910701682779277093CB
:1050800007016093060104C00E944D088111A1CE62
:10509000E091FC04E353E53030F4F0E0E059FE4FDA
:1050A000808181110EC166E973E08DEF94E00E946A
:1050B0001C1661E070E080E090E00E94B804F9CF37
:1050C000843031F58091350490913604A0913704F5
:1050D000B09138040196A11DB11D809335049093C1
:1050E0003604A0933704B09338040E94EA046C1984
:1050F0007D098E099F09A30192010E94AD2FA9018C
:1051000063E081E394E00E9468160093730426CF65
:10511000813091F540916B0450916C0460916D0465
:1051200070916E049E012F5F3F4F81E394E00E94D7
:105130001C23182F823009F0C1C089819A81AB816C
:10514000BC818093350490933604A0933704B093C8
:1051500038040E94EA046C197D098E099F09A30195
:1051600092010E94AD2FA90163E081E394E00E94C7
:10517000681610937304F2CE823009F0EFCE40919E
:105180006B0450916C0460916D0470916E049E01EB
:105190002F5F3F4F81E394E00E941C23182F85303E
:1051A00009F087C090927304809153049091540445
:1051B000A0915504B0915604892B8A2B8B2B61F456
:1051C00084E893E0A0E0B0E080935304909354040B
:1051D000A0935504B09356048091570490915804BD
:1051E000A0915904B0915A04892B8A2B8B2BA1F4DE
:1051F0008091530490915404A0915504B0915604A9
:10520000B695A795979587958093570490935804E2
:10521000A0935904B0935A0480915B0490915C046C
:10522000A0915D04B0915E04892B8A2B8B2BE9F44D
:105230008091530490915404A0915504B091560468
:10524000AC01BD0133E076956795579547953A9542
:10525000D1F7841B950BA60BB70B80935B0490933F
:105260005C04A0935D04B0935E0480915704909118
:105270005804A0915904B0915A0480935F0490930C
:105280006004A0936104B093620480915B049091E8
:105290005C04A0915D04B0915E04809363049093DC
:1052A0006404A0936504B0936604AA24A394B12C6B
:1052B00055CE863019F41092730450CE1F3FD9F3A7
:1052C0004DCE80919704882309F44FC08091FC044F
:1052D000843309F44FC0873309F45DC083EE95E051
:1052E0000E94E60C6FE971E0CE010D960E94141940
:1052F00010E000E091E2F92EF801F092570064917D
:10530000CE010D960E9494180E5F1F4F06301105B6
:1053100099F70EE010E081E2F82EF801F0925700C4
:105320006491CE010D960E9494180F5F1F4F0831B3
:10533000110599F710E0E12EF12CB701CE010D9681
:105340000E946102DC018C91F701E856FB4F6F016E
:10535000882361F1B701CE010D960E946102DC0144
:105360008C91F60180831F5FE6CF0E944D0881116A
:10537000ADCFB4CF80E591E00E94470285E390E095
:105380000E94220885FDAACF6CED73E08DEF94E0BA
:105390000E941C16A3CF80E591E00E9447028EE296
:1053A00090E00E94220880FD99CFEECF10826FE935
:1053B00071E0CE0107960E941419CE0101960E9459
:1053C0002519BE016F5F7F4FCE0107960E947617A9
:1053D000CE0101960E94C1178B859C85449729F4C4
:1053E000EF81F885808181110EC06DEF73E0CE01F1
:1053F00001960E941419CE0101960E941707CE0152
:1054000001960E94C117CE0101960E942519BE0186
:105410006F5F7F4FCE0107960E947617CE010196EF
:105420000E94C11782ED93E00E94C01584EB93E0C7
:105430000E94C0158BE893E00E94C0158CE693E0B3
:105440000E94C0158EE493E00E94C0158DE493E0A5
:105450000E94C0158FE393E00E94610362E174E053
:105460008DEF94E00E941C168CE293E00E94610391
:1054700068E974E08DEF94E00E941C1687E193E0E8
:105480000E946103CE0101960E9492116DEF74E0BB
:10549000CE0101960E947A196DE971E08DEF94E0DA
:1054A0000E94B11588EF92E00E94C0158CEE92E048
:1054B0000E946103BE01695F7F4F8DEF94E00E94FF
:1054C00030168CEC92E00E94C01583EB92E00E94B3
:1054D000C01582EA92E00E946103CE0101960E940B
:1054E00092116DEF74E0CE0101960E947A1980EA64
:1054F00092E00E94610368E974E08DEF94E00E94FD
:10550000B11586E992E00E94C0158AE692E00E94F9
:10551000C0158AE492E00E94C01584E292E00E94E5
:10552000C01587E092E00E94C01588EF91E00E94CC
:10553000C01587EE91E00E946103CE0101960E94A2
:1055400092116DEF74E0CE0101960E947A1985EEFA
:1055500091E00E94610368E974E08DEF94E00E949D
:10556000B1158BED91E00E94C01583EC91E00E9493
:10557000C01587E991E00E94C01587E791E00E947D
:10558000C01586E791E00E94C015CE0101960E94E9
:10559000251910E000E0F02EB801CE0101960E941E
:1055A0006102FC018081813321F060E0802F0E9444
:1055B000C503B801CE0101960E946102DC018C9105
:1055C000813321F461E08F2D0E94C5030F5F1F4FCF
:1055D0000331110501F7CE0101960E94C117CE01DA
:1055E00007960E94C117CE010D960E94C11700E0D8
:1055F00010E00E945F1A01151105D9F30E94DE0226
:105600008823B9F30E940000F4CFEF920F931F9309
:10561000CF93DF93E80134E047FD34E1042E000C22
:10562000550B57FF03C0519541955109E32E022FA9
:10563000242FAE010E94EC2BCE01DF91CF911F9160
:105640000F91EF9008958F929F92AF92BF92CF9259
:10565000DF92EF92FF92CF93DF93EC016881798123
:105660008A819B81611571058105910521F464E2B0
:1056700079ED8BE597E02DE133EF41E050E00E94BA
:10568000442F49015A019B01AC01A7EAB1E40E94F1
:10569000632F6B017C01ACEEB4EFA50194010E9475
:1056A000712FC60ED71EE81EF91EF7FE06C081E058
:1056B000C81AD108E10880E8F80AC882D982EA82CB
:1056C000FB82C701B6019F77DF91CF91FF90EF90EA
:1056D000DF90CF90BF90AF909F908F9008958F9262
:1056E0009F92AF92BF92CF92DF92EF92FF92609122
:1056F00008017091090180910A0190910B016115D7
:1057000071058105910521F464E279ED8BE597E05F
:105710002DE133EF41E050E00E94442F49015A014E
:105720009B01AC01A7EAB1E40E94632F6B017C01ED
:10573000ACEEB4EFA50194010E94712FC60ED71EE6
:10574000E81EF91EF7FE06C081E0C81AD108E1087C
:1057500080E8F80AC0920801D0920901E0920A019B
:10576000F0920B01C701B6019F77FF90EF90DF9099
:10577000CF90BF90AF909F908F9008956093080155
:105780007093090180930A0190930B010895BB2740
:105790004A3031F4992322F4BDE2909581959F4FD0
:1057A0000C94D32BBB27FB015527AA27880F991FE1
:1057B000AA1FA41710F0A41B83955051B9F7A05D40
:1057C000AA3308F0A95DA193009779F7B111B193BD
:1057D0001192CB010C94232EA9E0B0E0E2EFFBE2A2
:1057E0000C947C2F6A01F22EB02E102FFBE3AF2E0B
:1057F000A01608F41BE31F5F012F27E0AE014F5FE7
:105800005F4F0E944B2DBC018981982F9970913078
:1058100009F43FC09BE2E1FC04C09E2D9170E0FCC6
:105820003AC05E2D5071E82FE87083FF46C084E0D7
:10583000911101C083E0EF2DE81B8F1508F0E0E027
:10584000D6018E2F20E2552351F1992329F0D6015C
:105850009C93C60101966C0196012D5F3F4FE2FEBD
:1058600024C08EE4D6018C9391E411969C931197F9
:1058700012968C93D9018E2F90E281111BC0E20FFA
:10588000F32FF11D10828EEF9FEF2996ECE00C9420
:10589000982F9DE2C6CF90E2C4CF2D938150811105
:1058A000FCCFCE0ED11CE0E0D0CF8EE6D6018C939B
:1058B00091E6DBCF9D938150E0CF482F447082FF6B
:1058C0003DC084E0911101C083E08F1510F4EF2DED
:1058D000E81BD6018E2F20E2552309F1992329F0E8
:1058E000D6019C93C60101966C0196012D5F3F4F36
:1058F000E2FE1BC089E4D6018C938EE411968C9352
:10590000119786E412968C93D9018E2F90E288230A
:1059100009F4B5CF9D938150FACF2D938150811119
:10592000FCCFCE0ED11CE0E0D9CF89E6D6018C9316
:105930008EE611968C93119786E6E4CF9B0177FF54
:1059400002C030E020E0A1E0B0E0911102C0B0E080
:10595000A0E0F9013196AE0FBF1F8B2C912CBB201C
:1059600009F461C05401EFEFAE1ABE0AAA0DBB1DC7
:10597000FA161B0619F014F04F2D4A1B511188C05E
:10598000E3FC59C07601A42FB0E2A1114FC0C40EB0
:10599000D11C992309F45BC040E0D6011196F601B1
:1059A00090836D01552309F448C0012F060F9A8199
:1059B000582F507184FF03C0913309F40150101621
:1059C0000CF047C0093008F008E0EEE2FE2E5B0163
:1059D000A01AB10885019194819491082F3F320754
:1059E00029F4D601FC92F60131966F016217730714
:1059F00094F1021713077CF5DB01A21BB30BAA2459
:105A0000A394B12CAC0EBD1EAA0DBB1D11968C919A
:105A100021503109D601119628153905F4F0F60107
:105A200080836D01DBCFB12CA12CA0CFF701B19306
:105A30007F01A150AACF9111B0CFD601942F50E38E
:105A400002C05D9391509111FCCFC40ED11C40E077
:105A5000ACCF01E0BACF80E3DBCF6217730731F43C
:105A6000963388F4953311F4552369F0F601808359
:105A7000FD01842F90E2811108C0A40FB11D1C927A
:105A800090E080E002CF81E3F1CF91938150F3CF9A
:105A9000911183CF8ACF283008F027E03327DA012D
:105AA000990F311D87FD916000966105710539F4EC
:105AB00032602E5F3D9330E32A95E1F708959F3FD2
:105AC00030F080387105610509F03C5F3C5F3D9323
:105AD000913008F08068911DDF93CF931F930F934F
